:100000000C9462000C948A000C948A000C948A0070
:100010000C948A000C948A000C948A000C948A0038
:100020000C948A000C948A000C948A000C948A0028
:100030000C948A000C948A000C948A000C948A0018
:100040000C94B3040C948A000C9481040C945B040B
:100050000C948A000C948A000C948A000C948A00F8
:100060000C948A000C948A000000000024002700F1
:100070002A0000000000250028002B0000000008D6
:10008000000201000003040700000000000000005F
:1000900000000000230026002900040404040404D6
:1000A0000404020202020202030303030303010227
:1000B00004081020408001020408102001020408F6
:1000C0001020FD0411241FBECFEFD8E0DEBFCDBF4E
:1000D00011E0A0E0B1E0EAEBF2E102C005900D9280
:1000E000A633B107D9F721E0A6E3B1E001C01D9224
:1000F000A63FB207E1F710E0C2E6D0E004C02197C6
:10010000FE010E94B207C136D107C9F70E944A0515
:100110000C945B090C9400008F929F92AF92BF9257
:10012000CF92DF92EF92FF92CF93DF93A091EB01FA
:10013000882311F03A2F01C030E08091EC0190E06B
:10014000880F991F80579F4FC090F101D090F20106
:10015000E090F301F090F40140E050E0BA01FC01BE
:10016000C591D49128812A2323130FC04A015B0132
:100170002FEF821A920AA20AB20A4C155D056E058B
:100180007F0538F4B501A401EACF342F252FCB0128
:1001900004C030E020E080E090E0632F722FDF9118
:1001A000CF91FF90EF90DF90CF90BF90AF909F9056
:1001B0008F900895CF92DF92EF92FF920F931F934B
:1001C000CF93DF936C017A018B01C0E0D0E0CE15B4
:1001D000DF0589F0D8016D918D01D601ED91FC917B
:1001E0000190F081E02DC6010995892B11F47E0163
:1001F00002C02196ECCFC701DF91CF911F910F91E3
:10020000FF90EF90DF90CF900895FC01918D828D4B
:10021000981761F0828DDF01A80FB11D5D968C915A
:10022000928D9F5F9F73928F90E008958FEF9FEF65
:100230000895FC01918D828D981731F0828DE80F21
:10024000F11D858D90E008958FEF9FEF0895FC01DB
:10025000918D228D892F90E0805C9F4F821B9109A8
:100260008F739927089587E491E00E94270121E088
:10027000892B09F420E0822F0895FC01848DDF0191
:10028000A80FB11DA35ABF4F2C91848D90E0019609
:100290008F739927848FA689B7892C93A089B189F8
:1002A0008C9180648C93938D848D981306C0028802
:1002B000F389E02D80818F7D80830895EF92FF92F6
:1002C0000F931F93CF93DF93EC0181E0888F9B8D79
:1002D0008C8D981305C0E889F989808185FD24C03B
:1002E000F62E0B8D10E00F5F1F4F0F731127E02EBE
:1002F0008C8DE8120CC00FB607FCFACFE889F9899B
:10030000808185FFF5CFCE010E943D01F1CF8B8D1D
:10031000FE01E80FF11DE35AFF4FF0820B8FEA89CF
:10032000FB898081806207C0EE89FF896083E8894C
:10033000F98980818064808381E090E0DF91CF91B2
:100340001F910F91FF90EF900895CF93DF93EC01F1
:10035000888D8823C9F0EA89FB89808185FD05C0E5
:10036000A889B9898C9186FD0FC00FB607FCF5CF1F
:10037000808185FFF2CFA889B9898C9185FFEDCF67
:10038000CE010E943D01E7CFDF91CF91089580E03B
:1003900090E0892B29F00E94330181110C94000018
:1003A0000895833081F028F4813099F08230A1F0F3
:1003B00008958730A9F08830B9F08430D1F4809165
:1003C00080008F7D03C0809180008F7780938000B4
:1003D000089584B58F7702C084B58F7D84BD08955C
:1003E0008091B0008F7703C08091B0008F7D8093A3
:1003F000B00008951F93CF93DF93282F30E0F901C9
:10040000E458FF4F8491F901E255FF4FD491F9016F
:10041000E656FF4FC491CC23C9F0162F81110E94DC
:10042000D101EC2FF0E0EE0FFF1FEE58FF4FA5912A
:10043000B4918FB7F894111105C09C91ED2FE09500
:10044000E92302C0EC91ED2BEC938FBFDF91CF91AC
:100450001F910895CF93DF9390E0FC01E255FF4F89
:100460002491FC01E656FF4F8491882361F190E0CE
:10047000880F991FFC01E859FF4FC591D491FC01E9
:10048000EE58FF4FA591B491611109C09FB7F89440
:100490008881209582238883EC912E230BC06230C3
:1004A00061F49FB7F8943881822F809583238883E5
:1004B000EC912E2B2C939FBF06C08FB7F894E88148
:1004C0002E2B28838FBFDF91CF9108953FB7F894EB
:1004D0008091370190913801A0913901B0913A0192
:1004E00026B5A89B05C02F3F19F00196A11DB11D8F
:1004F0003FBFBA2FA92F982F8827820F911DA11DCA
:10050000B11DBC01CD0142E0660F771F881F991F06
:100510004A95D1F708958F929F92AF92BF92CF9252
:10052000DF92EF92FF926B017C010E9466024B0109
:100530005C01C114D104E104F104F1F00E946602EF
:10054000DC01CB0188199909AA09BB09883E9340AF
:10055000A105B10570F321E0C21AD108E108F10844
:1005600088EE880E83E0981EA11CB11CC114D10432
:10057000E104F10419F7DDCFFF90EF90DF90CF9009
:10058000BF90AF909F908F900895CF92DF92EF929F
:10059000FF920F931F93CF93DF93CDB7DEB7C05475
:1005A000D1400FB6F894DEBF0FBECDBF2FB7F89481
:1005B0008091430190914401A0914501B091460181
:1005C0002FBF4091ED015091EE016091EF017091CC
:1005D000F0018C019D01041B150B260B370BB90193
:1005E000A801403D57406105710518F48091F5015F
:1005F000BCC08093ED019093EE01A093EF01B09306
:10060000F0011092E8011092E7011092E6011092B9
:10061000E5011092E40161E08091E9010E94FA0194
:100620006AEF70E080E090E00E948B0261E08091D0
:10063000E9010E942A0260E08091E9010E94FA012A
:1006400064E170E080E090E00E948B02F89461E049
:100650008091E9010E94FA018BE990E00197F1F79E
:1006600062E08091E9010E942A0283E290E0019712
:10067000F1F780E00E948C00672B682B692B21F436
:100680001092F50178943EC081E00E948C00672BA7
:10069000682B692BA9F38E010F5F1F4F6E012FEBA3
:1006A000C21A2EEFD20A780180E00E948C00F70176
:1006B000608371838283938381E00E948C00F701C1
:1006C0006483758386839783F8E0EF0EF11CEC1446
:1006D000FD0451F7789420E030E0F8014081518129
:1006E00062817381C480D580E680F7804115510511
:1006F0006105710529F0C114D104E104F10421F46C
:100700001092F50180E031C0F90183E0F595E7959D
:100710008A95E1F7EC51FE4F8081880F4C155D05FD
:100720006E057F0508F4816080832F5F3F4F085F6F
:100730001F4F2832310589F62091E80130E04091C1
:10074000E4018091E50190E0840F911D4091E60164
:10075000840F911D4091E701840F911D992728175F
:10076000390771F681E08093F501C05CDE4F0FB66A
:10077000F894DEBF0FBECDBFDF91CF911F910F91D7
:10078000FF90EF90DF90CF900895009769F0FC0103
:1007900001900020E9F73197AF01481B590BBC01CC
:1007A00087E491E00C94DA0080E090E008958F9265
:1007B0009F92AF92BF92CF92DF92EF92FF920F93F0
:1007C0001F93CF93DF93CDB7DEB7A1970FB6F89401
:1007D000DEBF0FBECDBF6C01990FEE08FF08F7FE1C
:1007E00031C0E0914701F09148010190F081E02D86
:1007F0006DE287E491E009958C0122273327A90156
:100800002C193D094E095F0919A2CE0181967C0180
:100810009AE0892E912CA12CB12CCA01B901A50115
:1008200094010E949007605DF70162937F0121159A
:1008300031054105510589F7CF010E94C503080F15
:10084000191F1EC0A701960119A28E010F5D1F4F2F
:100850008AE0C82ED12CE12CF12CCA01B901A701E4
:1008600096010E949007605DF80162938F01211547
:1008700031054105510589F7CF010E94C5038C015F
:1008800080E191E00E94C503800F911FA1960FB6F1
:10089000F894DEBF0FBECDBFDF91CF911F910F91B6
:1008A000FF90EF90DF90CF90BF90AF909F908F9090
:1008B00008950E9456091F920F920FB60F921124AD
:1008C0002F933F934F935F936F937F938F939F9358
:1008D000AF93BF93EF93FF9387E491E00E943D01B4
:1008E000FF91EF91BF91AF919F918F917F916F9108
:1008F0005F914F913F912F910F900FBE0F901F90DE
:1009000018951F920F920FB60F9211242F938F9369
:100910009F93EF93FF93E0915701F09158018081ED
:10092000E0915D01F0915E0182FD12C090818091A5
:1009300060018F5F8F7320916101821751F0E09108
:100940006001F0E0E95BFE4F958F8093600101C08C
:100950008081FF91EF919F918F912F910F900FBE0A
:100960000F901F9018951F920F920FB60F9211249F
:100970002F933F938F939F93AF93BF9380914301A6
:1009800090914401A0914501B0914601309136010A
:1009900023E0230F2D3720F40196A11DB11D05C0C2
:1009A00026E8230F0296A11DB11D209336018093E6
:1009B000430190934401A0934501B0934601809177
:1009C000370190913801A0913901B0913A01019617
:1009D000A11DB11D8093370190933801A093390177
:1009E000B0933A01BF91AF919F918F913F912F9119
:1009F0000F900FBE0F901F901895E7E4F1E013825F
:100A0000128288EE93E0A0E0B0E084839583A68311
:100A1000B78384E091E09183808385EC90E09587B3
:100A2000848784EC90E09787868780EC90E0918BB8
:100A3000808B81EC90E0938B828B82EC90E0958BA5
:100A4000848B86EC90E0978B868B118E128E138EA2
:100A5000148EA4EEB1E08CE015968C93159786E188
:100A600016968C931697EAEBF0E0E4911796EC93C8
:100A70001797E6EAF0E0E4911896EC93189740E8AF
:100A80005EE360E070E01D964D935D936D937C9303
:100A900050970895CF93DF93CDB7DEB7C456D109F1
:100AA0000FB6F894DEBF0FBECDBF789484B58260D8
:100AB00084BD84B5816084BD85B5826085BD85B502
:100AC000816085BD80916E00816080936E00109280
:100AD00081008091810082608093810080918100FB
:100AE000816080938100809180008160809380008C
:100AF0008091B10084608093B1008091B0008160EA
:100B00008093B00080917A00846080937A00809115
:100B10007A00826080937A0080917A00816080936D
:100B20007A0080917A00806880937A001092C100E8
:100B3000E0915701F091580182E08083E0915301E8
:100B4000F09154011082E0915501F09156018FEC23
:100B5000808310925F01E0915B01F0915C0186E07F
:100B60008083E0915901F0915A01808180618083F6
:100B7000E0915901F0915A01808188608083E09171
:100B80005901F0915A01808180688083E091590178
:100B9000F0915A0180818F7D808362E08091E9012C
:100BA0000E942A0280E398EFAFEFBFEF8093ED0140
:100BB0009093EE01A093EF01B093F00161E082E029
:100BC0000E942A0261E083E00E942A0261E084E040
:100BD0000E942A0260E085E00E942A0200E010E004
:100BE00020E030E080E090E0AC0140515109443019
:100BF000510558F0445051094530510548F08931AC
:100C000091054CF043E050E008C041E050E005C0E1
:100C100042E050E002C040E050E04217530769F064
:100C2000F801EE0FFF1F61E070E06C0F7D1FE60F13
:100C3000F71F518340830F5F1F4F8331910531F0C0
:100C40008831910519F08F30910511F42F5F3F4FD6
:100C500001968233910541F60115110541F483E1B6
:100C600091E00E94C50380E191E00E94C503CE019E
:100C700001965C01C12CD12C7C01C016D10651F02B
:100C8000F501819191915F010E94D703FFEFCF1A87
:100C9000DF0AF3CF00E010E020E030E080E090E0F9
:100CA00041E050E0BC016E5271096430710510F0F2
:100CB00040E050E04217530749F0F801EE0FFF1FE4
:100CC000EE0DFF1D518340830F5F1F4F8D32910545
:100CD00019F08133910511F42F5F3F4F0196823354
:100CE0009105F1F60115110541F485E291E00E94AC
:100CF000C50380E191E00E94C503C12CD12CC01630
:100D0000D10651F0F701819191917F010E94D703A3
:100D1000FFEFCF1ADF0AF3CF01E810E053EBE52E27
:100D200050E0F52E6FE9C62E60E0D62E0E94C50277
:100D30008823B1F18091EA018B3041F188F185512E
:100D4000823070F56091E40170E080E090E00E94F4
:100D50005B0820E030E040E853E40E94E9084B01E2
:100D60005C018091E501682F70E080E090E00E94D6
:100D70005D089B01AC01C501B4010E94B9072DECCF
:100D80003CEC4CEC5DE30E94E90807C06091E40193
:100D900070E080E090E00E945B084B015C0106C0BF
:100DA000812C912C40ECA42E4FE7B42E80923F0171
:100DB00090924001A0924101B09242010E94C5026E
:100DC000882309F440C08091EA018B3029F0D8F1E2
:100DD0008551823058F037C06091E60170E080E0C4
:100DE00090E00E945B082B013C0133C03090E6018B
:100DF000632D6F7770E080E090E00E945D0820E056
:100E000030E040E853E40E94E9082B013C01609186
:100E1000E70170E080E090E00E945D089B01AC017A
:100E2000C301B2010E94B9072DEC3CEC4CEC5DE330
:100E30000E94E9082B013C0137FE0BC077FA709441
:100E400077F8709406C0412C512C30EC632E3FE7AC
:100E5000732E40923B0150923C0160923D01709292
:100E60003E01F8018491F7013490F601249022208C
:100E700019F181110E94D101822D90E0880F991FF4
:100E800080579F4FFC01A591B4918C913822A1F01D
:100E9000C501B4010E942508AB019B012E52310906
:100EA00024303105F0F06253710965307105F8F0B6
:100EB0004733510534F513C0C301B2010E94250820
:100EC000AB019B01205131092430310550F06451B0
:100ED00071096530710558F04931510594F460E0AD
:100EE00001C061E082E00E94FA0160E005C061E0BB
:100EF00082E00E94FA0161E083E00E94FA0160E072
:100F000009C061E082E00E94FA0161E083E00E9492
:100F1000FA0161E084E00E94FA010E94C70106CF55
:100F2000A1E21A2EAA1BBB1BFD010DC0AA1FBB1FED
:100F3000EE1FFF1FA217B307E407F50720F0A21B5F
:100F4000B30BE40BF50B661F771F881F991F1A94CC
:100F500069F760957095809590959B01AC01BD01F6
:100F6000CF010895EE0FFF1F0590F491E02D099435
:100F70005058BB27AA270E94D0070C94AF080E94A4
:100F8000A10838F00E94A80820F039F49F3F19F416
:100F900026F40C949E080EF4E095E7FB0C94980858
:100FA000E92F0E94C00858F3BA1762077307840735
:100FB000950720F079F4A6F50C94E2080EF4E0957C
:100FC0000B2EBA2FA02D0B01B90190010C01CA0103
:100FD000A0011124FF27591B99F0593F50F4503EAE
:100FE00068F11A16F040A22F232F342F4427585FA0
:100FF000F3CF469537952795A795F0405395C9F7B8
:101000007EF41F16BA0B620B730B840BBAF091506F
:10101000A1F0FF0FBB1F661F771F881FC2F70EC00E
:10102000BA0F621F731F841F48F4879577956795E1
:10103000B795F7959E3F08F0B0CF9395880F08F0CD
:101040009927EE0F9795879508950E942C0868942C
:10105000B1110C94E30808950E94C80888F09F57C6
:1010600098F0B92F9927B751B0F0E1F0660F771FCC
:10107000881F991F1AF0BA95C9F714C0B13091F0C2
:101080000E94E208B1E008950C94E208672F782FDF
:101090008827B85F39F0B93FCCF386957795679587
:1010A000B395D9F73EF490958095709561957F4FF3
:1010B0008F4F9F4F0895E89409C097FB3EF4909599
:1010C0008095709561957F4F8F4F9F4F9923A9F021
:1010D000F92F96E9BB279395F695879577956795B0
:1010E000B795F111F8CFFAF4BB0F11F460FF1BC0F4
:1010F0006F5F7F4F8F4F9F4F16C0882311F096E987
:1011000011C0772321F09EE8872F762F05C0662334
:1011100071F096E8862F70E060E02AF09A95660FED
:10112000771F881FDAF7880F9695879597F90895A6
:1011300097F99F6780E870E060E008959FEF80EC8A
:10114000089500240A94161617061806090608952D
:1011500000240A9412161306140605060895092E93
:101160000394000C11F4882352F0BB0F40F4BF2B02
:1011700011F460FF04C06F5F7F4F8F4F9F4F089542
:1011800057FD9058440F551F59F05F3F71F0479538
:10119000880F97FB991F61F09F3F79F0879508951D
:1011A000121613061406551FF2CF4695F1DF08C03C
:1011B000161617061806991FF1CF86957105610559
:1011C00008940895E894BB2766277727CB0197F901
:1011D00008950E94FC080C94AF080E94A10838F002
:1011E0000E94A80820F0952311F00C9498080C9404
:1011F0009E0811240C94E3080E94C00870F3959F88
:10120000C1F3950F50E0551F629FF001729FBB27FD
:10121000F00DB11D639FAA27F00DB11DAA1F649F99
:101220006627B00DA11D661F829F2227B00DA11D4C
:10123000621F739FB00DA11D621F839FA00D611DD2
:10124000221F749F3327A00D611D231F849F600DF3
:10125000211D822F762F6A2F11249F5750409AF01C
:10126000F1F088234AF0EE0FFF1FBB1F661F771FA8
:10127000881F91505040A9F79E3F510580F00C9473
:1012800098080C94E3085F3FE4F3983ED4F3869506
:1012900077956795B795F795E7959F5FC1F7FE2B13
:1012A000880F911D9695879597F9089581E090E0B4
:0A12B000F8940C945B09F894FFCF4A
:1012BA00000000005E01DA00270105011901A501FD
:1012CA000D0A0054454D502054455354205355435C
:1012DA00434553530048554D2054455354205355C4
:0612EA004343455353008D
:00000001FF
